:020000040800F2
:1000000000A00020F50400083905000839050008A3
:10001000390500083905000839050008000000000E
:10002000000000000000000000000000390500088A
:1000300039050008000000003905000839050008EE
:100040003905000839050008390500083905000898
:100050003905000839050008390500083905000888
:100060003905000839050008390500083905000878
:100070003905000839050008390500083905000868
:100080003905000839050008390500083905000858
:100090003905000839050008390500083905000848
:1000A0003905000839050008390500083905000838
:1000B0003905000839050008390500083905000828
:1000C0003905000839050008390500083905000818
:1000D0003905000839050008390500083905000808
:1000E00039050008390500083905000839050008F8
:1000F00039050008390500083905000839050008E8
:1001000000000000000000000000000039050008A9
:1001100039050008390500083905000839050008C7
:1001200039050008390500083905000839050008B7
:100130003905000839050008000000000000000033
:1001400039050008390500083905000800000000DD
:10015000000000000000000000000000000000009F
:100160000000000000000000390500083905000803
:100170003905000800000000000000000000000039
:10018000000000003905000880B483B000AF78603B
:100190000B46FB70FB78002B06D0094B5A690849C7
:1001A0007B6813434B6106E0054B5A697B68DB4370
:1001B000034913404B6100BF0C37BD4680BC7047FC
:1001C0000010024080B487B000AF7860396000232F
:1001D0007B6100233B610023FB6000237B617CE0AB
:1001E00001227B6902FA03F33B613B681B683A69B1
:1001F0001340FB60FA683B699A426BD13B681B79FC
:10020000012B03D03B681B79022B34D17B689A68A1
:100210007B695B00032101FA03F3DB431A407B682F
:100220009A607B689A683B685B7919467B695B00DA
:1002300001FA03F31A437B689A607B689B889AB241
:100240007B699BB2194601238B409BB2DB439BB277
:1002500013409AB27B689A807B689B889AB23B680D
:100260009B7919467B699BB201FA03F39BB2134356
:100270009AB27B689A807B681A687B695B0003216D
:1002800001FA03F3DB431A407B681A607B681A6843
:100290003B681B7919467B695B0001FA03F31A433B
:1002A0007B681A607B68DA687B699BB25B0003211C
:1002B00001FA03F3DB431A407B68DA607B68DA6893
:1002C0003B68DB7919467B695B0001FA03F31A434B
:1002D0007B68DA607B6901337B617B690F2B7FF67A
:1002E0007FAF00BF1C37BD4680BC704780B483B071
:1002F00000AF78600B467B807B687A889A8200BF6B
:100300000C37BD4680BC704780B584B000AF002379
:10031000FB600023BB6000237B6001214FF40010D1
:10032000FFF732FF174B4FF47F421A60154B012243
:100330001A71144B00229A71124B0022DA71114B80
:1003400002225A710F491048FFF73CFF00210E4866
:10035000FFF7CCFF0023FB6002E0FB680133FB608A
:10036000FB680A4A9342F8D9BB680133BB60BB689B
:10037000DB017B607B689BB219460348FFF7B6FF41
:10038000E8E700BF00000020001000481FA10700A0
:1003900080B500AF1B4B1B681A4A43F00103136082
:1003A000184B5A681749184B13404B60154B1B6884
:1003B000144A23F0847323F480331360114B1B68B9
:1003C000104A23F4802313600E4B5B680D4A23F41C
:1003D000FE0353600B4BDB6A0A4A23F00F03D36220
:1003E000084B1A6B0749094B13400B63054B00225E
:1003F0009A6000F00FF8064B4FF000629A6000BF61
:1004000080BD00BF001002400CC07FF8CCFC00FF94
:1004100000ED00E080B483B000AF00237B600023D8
:100420003B60324B1B68314A43F4803313602F4BDF
:100430001B6803F400333B607B6801337B603B68DF
:10044000002B03D17B68B3F5A06FF0D1274B1B685D
:1004500003F40033002B02D001233B6001E00023B2
:100460003B603B68012B3CD1214B12221A601F4B91
:100470001E4A5B6853601D4B1C4A5B6853601B4BF4
:100480005B681A4A43F480635360184B5B68174AF1
:1004900023F47C135360154B5B68144A43F4E81350
:1004A0005360124B1B68114A43F08073136000BF06
:1004B0000E4B1B6803F00073002BF9D00B4B5B68ED
:1004C0000A4A23F003035360084B5B68074A43F072
:1004D0000203536000BF054B5B6803F00C03082B5D
:1004E000F9D100BF0C37BD4680BC704700100240F8
:1004F00000200240002103E00A4B5B5843500431C6
:1005000009480A4B42189A42F6D3094A02E00023EE
:1005100042F8043B074B9A42F9D3FFF739FFFFF744
:10052000F3FE70473A05000800000020000000209C
:0A0530000000002008000020FEE794
:0400000508000000EF
:00000001FF
